{
  "contractName": "CrowdFunding",
  "abi": [
    {
      "inputs": [
        {
          "internalType": "uint256",
          "name": "_target",
          "type": "uint256"
        },
        {
          "internalType": "uint256",
          "name": "_deadline",
          "type": "uint256"
        }
      ],
      "stateMutability": "nonpayable",
      "type": "constructor"
    },
    {
      "inputs": [
        {
          "internalType": "address",
          "name": "",
          "type": "address"
        }
      ],
      "name": "contributors",
      "outputs": [
        {
          "internalType": "uint256",
          "name": "",
          "type": "uint256"
        }
      ],
      "stateMutability": "view",
      "type": "function",
      "constant": true
    },
    {
      "inputs": [],
      "name": "deadline",
      "outputs": [
        {
          "internalType": "uint256",
          "name": "",
          "type": "uint256"
        }
      ],
      "stateMutability": "view",
      "type": "function",
      "constant": true
    },
    {
      "inputs": [],
      "name": "manager",
      "outputs": [
        {
          "internalType": "address",
          "name": "",
          "type": "address"
        }
      ],
      "stateMutability": "view",
      "type": "function",
      "constant": true
    },
    {
      "inputs": [],
      "name": "minimumContribution",
      "outputs": [
        {
          "internalType": "uint256",
          "name": "",
          "type": "uint256"
        }
      ],
      "stateMutability": "view",
      "type": "function",
      "constant": true
    },
    {
      "inputs": [],
      "name": "noOfContributors",
      "outputs": [
        {
          "internalType": "uint256",
          "name": "",
          "type": "uint256"
        }
      ],
      "stateMutability": "view",
      "type": "function",
      "constant": true
    },
    {
      "inputs": [],
      "name": "numRequests",
      "outputs": [
        {
          "internalType": "uint256",
          "name": "",
          "type": "uint256"
        }
      ],
      "stateMutability": "view",
      "type": "function",
      "constant": true
    },
    {
      "inputs": [],
      "name": "raisedAmount",
      "outputs": [
        {
          "internalType": "uint256",
          "name": "",
          "type": "uint256"
        }
      ],
      "stateMutability": "view",
      "type": "function",
      "constant": true
    },
    {
      "inputs": [
        {
          "internalType": "uint256",
          "name": "",
          "type": "uint256"
        }
      ],
      "name": "requests",
      "outputs": [
        {
          "internalType": "string",
          "name": "description",
          "type": "string"
        },
        {
          "internalType": "address payable",
          "name": "recipient",
          "type": "address"
        },
        {
          "internalType": "uint256",
          "name": "value",
          "type": "uint256"
        },
        {
          "internalType": "bool",
          "name": "completed",
          "type": "bool"
        },
        {
          "internalType": "uint256",
          "name": "noOfVoters",
          "type": "uint256"
        }
      ],
      "stateMutability": "view",
      "type": "function",
      "constant": true
    },
    {
      "inputs": [],
      "name": "target",
      "outputs": [
        {
          "internalType": "uint256",
          "name": "",
          "type": "uint256"
        }
      ],
      "stateMutability": "view",
      "type": "function",
      "constant": true
    },
    {
      "inputs": [],
      "name": "sendEth",
      "outputs": [],
      "stateMutability": "payable",
      "type": "function",
      "payable": true
    },
    {
      "inputs": [],
      "name": "getContractbalance",
      "outputs": [
        {
          "internalType": "uint256",
          "name": "",
          "type": "uint256"
        }
      ],
      "stateMutability": "view",
      "type": "function",
      "constant": true
    },
    {
      "inputs": [],
      "name": "refund",
      "outputs": [],
      "stateMutability": "nonpayable",
      "type": "function"
    },
    {
      "inputs": [
        {
          "internalType": "string",
          "name": "_description",
          "type": "string"
        },
        {
          "internalType": "address payable",
          "name": "_recipient",
          "type": "address"
        },
        {
          "internalType": "uint256",
          "name": "_value",
          "type": "uint256"
        }
      ],
      "name": "createRequest",
      "outputs": [],
      "stateMutability": "nonpayable",
      "type": "function"
    },
    {
      "inputs": [
        {
          "internalType": "uint256",
          "name": "_requestNo",
          "type": "uint256"
        }
      ],
      "name": "voteRequest",
      "outputs": [],
      "stateMutability": "nonpayable",
      "type": "function"
    },
    {
      "inputs": [
        {
          "internalType": "uint256",
          "name": "_requestNo",
          "type": "uint256"
        }
      ],
      "name": "makePayment",
      "outputs": [],
      "stateMutability": "nonpayable",
      "type": "function"
    }
  ],
  "bytecode": "0x60806040523480156200001157600080fd5b5060405162001b5f38038062001b5f8339818101604052810190620000379190620000e3565b8160048190555080426200004c919062000159565b600381905550606460028190555033600160006101000a81548173ffffffffffffffffffffffffffffffffffffffff021916908373ffffffffffffffffffffffffffffffffffffffff160217905550505062000194565b600080fd5b6000819050919050565b620000bd81620000a8565b8114620000c957600080fd5b50565b600081519050620000dd81620000b2565b92915050565b60008060408385031215620000fd57620000fc620000a3565b5b60006200010d85828601620000cc565b92505060206200012085828601620000cc565b9150509250929050565b7f4e487b7100000000000000000000000000000000000000000000000000000000600052601160045260246000fd5b60006200016682620000a8565b91506200017383620000a8565b92508282019050808211156200018e576200018d6200012a565b5b92915050565b6119bb80620001a46000396000f3fe6080604052600436106100e85760003560e01c80634e260f6f1161008a578063937e09b111610059578063937e09b1146102b35780639fb42b1f146102de578063c59ee1dc14610309578063d4b8399214610334576100e8565b80634e260f6f146102075780635114cb5214610232578063590e1ae31461025b57806381d12c5814610272576100e8565b806329dcb0cf116100c657806329dcb0cf1461015d57806334097bc014610188578063481c6a75146101b35780634cb6f4a5146101de576100e8565b806306e99fef146100ed5780631b16bb5c146100f75780631f6d494214610120575b600080fd5b6100f561035f565b005b34801561010357600080fd5b5061011e60048036038101906101199190610eba565b6104b7565b005b34801561012c57600080fd5b5061014760048036038101906101429190610f67565b610603565b6040516101549190610fa3565b60405180910390f35b34801561016957600080fd5b5061017261061b565b60405161017f9190610fa3565b60405180910390f35b34801561019457600080fd5b5061019d610621565b6040516101aa9190610fa3565b60405180910390f35b3480156101bf57600080fd5b506101c8610629565b6040516101d59190610fcd565b60405180910390f35b3480156101ea57600080fd5b5061020560048036038101906102009190610fe8565b61064f565b005b34801561021357600080fd5b5061021c6107f4565b6040516102299190610fa3565b60405180910390f35b34801561023e57600080fd5b5061025960048036038101906102549190610fe8565b6107fa565b005b34801561026757600080fd5b50610270610a24565b005b34801561027e57600080fd5b5061029960048036038101906102949190610fe8565b610bc9565b6040516102aa9594939291906110be565b60405180910390f35b3480156102bf57600080fd5b506102c8610cb4565b6040516102d59190610fa3565b60405180910390f35b3480156102ea57600080fd5b506102f3610cba565b6040516103009190610fa3565b60405180910390f35b34801561031557600080fd5b5061031e610cc0565b60405161032b9190610fa3565b60405180910390f35b34801561034057600080fd5b50610349610cc6565b6040516103569190610fa3565b60405180910390f35b60035442106103a3576040517f08c379a000000000000000000000000000000000000000000000000000000000815260040161039a90611164565b60405180910390fd5b6002543410156103e8576040517f08c379a00000000000000000000000000000000000000000000000000000000081526004016103df906111d0565b60405180910390fd5b60008060003373ffffffffffffffffffffffffffffffffffffffff1673ffffffffffffffffffffffffffffffffffffffff168152602001908152602001600020540361044757600660008154809291906104419061121f565b91905055505b346000803373ffffffffffffffffffffffffffffffffffffffff1673ffffffffffffffffffffffffffffffffffffffff16815260200190815260200160002060008282546104959190611267565b9250508190555034600560008282546104ae9190611267565b92505081905550565b600160009054906101000a900473ffffffffffffffffffffffffffffffffffffffff1673ffffffffffffffffffffffffffffffffffffffff163373ffffffffffffffffffffffffffffffffffffffff1614610547576040517f08c379a000000000000000000000000000000000000000000000000000000000815260040161053e9061130d565b60405180910390fd5b60006007600060085481526020019081526020016000209050600860008154809291906105739061121f565b9190505550838160000190816105899190611539565b50828160010160006101000a81548173ffffffffffffffffffffffffffffffffffffffff021916908373ffffffffffffffffffffffffffffffffffffffff16021790555081816002018190555060008160030160006101000a81548160ff0219169083151502179055506000816004018190555050505050565b60006020528060005260406000206000915090505481565b60035481565b600047905090565b600160009054906101000a900473ffffffffffffffffffffffffffffffffffffffff1681565b60008060003373ffffffffffffffffffffffffffffffffffffffff1673ffffffffffffffffffffffffffffffffffffffff16815260200190815260200160002054116106d0576040517f08c379a00000000000000000000000000000000000000000000000000000000081526004016106c790611657565b60405180910390fd5b6000600760008381526020019081526020016000209050600015158160050160003373ffffffffffffffffffffffffffffffffffffffff1673ffffffffffffffffffffffffffffffffffffffff16815260200190815260200160002060009054906101000a900460ff1615151461077c576040517f08c379a0000000000000000000000000000000000000000000000000000000008152600401610773906116c3565b60405180910390fd5b60018160050160003373ffffffffffffffffffffffffffffffffffffffff1673ffffffffffffffffffffffffffffffffffffffff16815260200190815260200160002060006101000a81548160ff0219169083151502179055508060040160008154809291906107eb9061121f565b91905055505050565b60065481565b600160009054906101000a900473ffffffffffffffffffffffffffffffffffffffff1673ffffffffffffffffffffffffffffffffffffffff163373ffffffffffffffffffffffffffffffffffffffff161461088a576040517f08c379a00000000000000000000000000000000000000000000000000000000081526004016108819061130d565b60405180910390fd5b60045460055410156108d1576040517f08c379a00000000000000000000000000000000000000000000000000000000081526004016108c89061172f565b60405180910390fd5b6000600760008381526020019081526020016000209050600015158160030160009054906101000a900460ff16151514610940576040517f08c379a00000000000000000000000000000000000000000000000000000000081526004016109379061179b565b60405180910390fd5b600260065461094f91906117ea565b816004015411610994576040517f08c379a000000000000000000000000000000000000000000000000000000000815260040161098b90611867565b60405180910390fd5b8060010160009054906101000a900473ffffffffffffffffffffffffffffffffffffffff1673ffffffffffffffffffffffffffffffffffffffff166108fc82600201549081150290604051600060405180830381858888f19350505050158015610a02573d6000803e3d6000fd5b5060018160030160006101000a81548160ff0219169083151502179055505050565b60035442118015610a385750600454600554105b610a77576040517f08c379a0000000000000000000000000000000000000000000000000000000008152600401610a6e906118d3565b60405180910390fd5b60008060003373ffffffffffffffffffffffffffffffffffffffff1673ffffffffffffffffffffffffffffffffffffffff1681526020019081526020016000205411610af8576040517f08c379a0000000000000000000000000000000000000000000000000000000008152600401610aef90611965565b60405180910390fd5b60003390508073ffffffffffffffffffffffffffffffffffffffff166108fc6000803373ffffffffffffffffffffffffffffffffffffffff1673ffffffffffffffffffffffffffffffffffffffff168152602001908152602001600020549081150290604051600060405180830381858888f19350505050158015610b81573d6000803e3d6000fd5b5060008060003373ffffffffffffffffffffffffffffffffffffffff1673ffffffffffffffffffffffffffffffffffffffff1681526020019081526020016000208190555050565b6007602052806000526040600020600091509050806000018054610bec9061135c565b80601f0160208091040260200160405190810160405280929190818152602001828054610c189061135c565b8015610c655780601f10610c3a57610100808354040283529160200191610c65565b820191906000526020600020905b815481529060010190602001808311610c4857829003601f168201915b5050505050908060010160009054906101000a900473ffffffffffffffffffffffffffffffffffffffff16908060020154908060030160009054906101000a900460ff16908060040154905085565b60025481565b60085481565b60055481565b60045481565b6000604051905090565b600080fd5b600080fd5b600080fd5b600080fd5b6000601f19601f8301169050919050565b7f4e487b7100000000000000000000000000000000000000000000000000000000600052604160045260246000fd5b610d3382610cea565b810181811067ffffffffffffffff82111715610d5257610d51610cfb565b5b80604052505050565b6000610d65610ccc565b9050610d718282610d2a565b919050565b600067ffffffffffffffff821115610d9157610d90610cfb565b5b610d9a82610cea565b9050602081019050919050565b82818337600083830152505050565b6000610dc9610dc484610d76565b610d5b565b905082815260208101848484011115610de557610de4610ce5565b5b610df0848285610da7565b509392505050565b600082601f830112610e0d57610e0c610ce0565b5b8135610e1d848260208601610db6565b91505092915050565b600073ffffffffffffffffffffffffffffffffffffffff82169050919050565b6000610e5182610e26565b9050919050565b610e6181610e46565b8114610e6c57600080fd5b50565b600081359050610e7e81610e58565b92915050565b6000819050919050565b610e9781610e84565b8114610ea257600080fd5b50565b600081359050610eb481610e8e565b92915050565b600080600060608486031215610ed357610ed2610cd6565b5b600084013567ffffffffffffffff811115610ef157610ef0610cdb565b5b610efd86828701610df8565b9350506020610f0e86828701610e6f565b9250506040610f1f86828701610ea5565b9150509250925092565b6000610f3482610e26565b9050919050565b610f4481610f29565b8114610f4f57600080fd5b50565b600081359050610f6181610f3b565b92915050565b600060208284031215610f7d57610f7c610cd6565b5b6000610f8b84828501610f52565b91505092915050565b610f9d81610e84565b82525050565b6000602082019050610fb86000830184610f94565b92915050565b610fc781610f29565b82525050565b6000602082019050610fe26000830184610fbe565b92915050565b600060208284031215610ffe57610ffd610cd6565b5b600061100c84828501610ea5565b91505092915050565b600081519050919050565b600082825260208201905092915050565b60005b8381101561104f578082015181840152602081019050611034565b60008484015250505050565b600061106682611015565b6110708185611020565b9350611080818560208601611031565b61108981610cea565b840191505092915050565b61109d81610e46565b82525050565b60008115159050919050565b6110b8816110a3565b82525050565b600060a08201905081810360008301526110d8818861105b565b90506110e76020830187611094565b6110f46040830186610f94565b61110160608301856110af565b61110e6080830184610f94565b9695505050505050565b7f446561646c696e65206861732070617373656400000000000000000000000000600082015250565b600061114e601383611020565b915061115982611118565b602082019050919050565b6000602082019050818103600083015261117d81611141565b9050919050565b7f4d696e696d756d20436f6e747269627574696f6e206973206e6f74206d657400600082015250565b60006111ba601f83611020565b91506111c582611184565b602082019050919050565b600060208201905081810360008301526111e9816111ad565b9050919050565b7f4e487b7100000000000000000000000000000000000000000000000000000000600052601160045260246000fd5b600061122a82610e84565b91507fffffffffffffffffffffffffffffffffffffffffffffffffffffffffffffffff820361125c5761125b6111f0565b5b600182019050919050565b600061127282610e84565b915061127d83610e84565b9250828201905080821115611295576112946111f0565b5b92915050565b7f4f6e6c79206d616e616765722063616e2063616c6c20746869732066756e637460008201527f696f6e0000000000000000000000000000000000000000000000000000000000602082015250565b60006112f7602383611020565b91506113028261129b565b604082019050919050565b60006020820190508181036000830152611326816112ea565b9050919050565b7f4e487b7100000000000000000000000000000000000000000000000000000000600052602260045260246000fd5b6000600282049050600182168061137457607f821691505b6020821081036113875761138661132d565b5b50919050565b60008190508160005260206000209050919050565b60006020601f8301049050919050565b600082821b905092915050565b6000600883026113ef7fffffffffffffffffffffffffffffffffffffffffffffffffffffffffffffffff826113b2565b6113f986836113b2565b95508019841693508086168417925050509392505050565b6000819050919050565b600061143661143161142c84610e84565b611411565b610e84565b9050919050565b6000819050919050565b6114508361141b565b61146461145c8261143d565b8484546113bf565b825550505050565b600090565b61147961146c565b611484818484611447565b505050565b5b818110156114a85761149d600082611471565b60018101905061148a565b5050565b601f8211156114ed576114be8161138d565b6114c7846113a2565b810160208510156114d6578190505b6114ea6114e2856113a2565b830182611489565b50505b505050565b600082821c905092915050565b6000611510600019846008026114f2565b1980831691505092915050565b600061152983836114ff565b9150826002028217905092915050565b61154282611015565b67ffffffffffffffff81111561155b5761155a610cfb565b5b611565825461135c565b6115708282856114ac565b600060209050601f8311600181146115a35760008415611591578287015190505b61159b858261151d565b865550611603565b601f1984166115b18661138d565b60005b828110156115d9578489015182556001820191506020850194506020810190506115b4565b868310156115f657848901516115f2601f8916826114ff565b8355505b6001600288020188555050505b505050505050565b7f596f75206d757374206265206120636f6e7472696275746f7200000000000000600082015250565b6000611641601983611020565b915061164c8261160b565b602082019050919050565b6000602082019050818103600083015261167081611634565b9050919050565b7f596f75206861766520616c726561647920766f74656400000000000000000000600082015250565b60006116ad601683611020565b91506116b882611677565b602082019050919050565b600060208201905081810360008301526116dc816116a0565b9050919050565b7f546172676574206e6f74206d6574000000000000000000000000000000000000600082015250565b6000611719600e83611020565b9150611724826116e3565b602082019050919050565b600060208201905081810360008301526117488161170c565b9050919050565b7f5265717565737420616c726561647920636f6d706c6574656400000000000000600082015250565b6000611785601983611020565b91506117908261174f565b602082019050919050565b600060208201905081810360008301526117b481611778565b9050919050565b7f4e487b7100000000000000000000000000000000000000000000000000000000600052601260045260246000fd5b60006117f582610e84565b915061180083610e84565b9250826118105761180f6117bb565b5b828204905092915050565b7f4e6f7420656e6f75676820766f74657300000000000000000000000000000000600082015250565b6000611851601083611020565b915061185c8261181b565b602082019050919050565b6000602082019050818103600083015261188081611844565b9050919050565b7f596f7520617265206e6f7420656c696769626c65000000000000000000000000600082015250565b60006118bd601483611020565b91506118c882611887565b602082019050919050565b600060208201905081810360008301526118ec816118b0565b9050919050565b7f596f752068617665206e6f74206164646564206120636f6e747269627574696f60008201527f6e00000000000000000000000000000000000000000000000000000000000000602082015250565b600061194f602183611020565b915061195a826118f3565b604082019050919050565b6000602082019050818103600083015261197e81611942565b905091905056fea264697066735822122062a51854924c34c6e85b7d162f1f71b40e1b0a52f8019b4ab4a5ff56cc4bfeea64736f6c63430008110033",
  "immutableReferences": {},
  "source": "// SPDX-License-Identifier: UNLICENSED\r\npragma solidity ^0.8.0;\r\n\r\ncontract CrowdFunding {\r\n    mapping(address => uint) public contributors;\r\n    address public manager;\r\n    uint public minimumContribution;\r\n    uint public deadline;\r\n    uint public target;\r\n    uint public raisedAmount;\r\n    uint public noOfContributors;\r\n\r\n    struct Request {\r\n        string description;\r\n        address payable recipient;\r\n        uint value;\r\n        bool completed;\r\n        uint noOfVoters;\r\n        mapping(address => bool) voters;\r\n    }\r\n\r\n    mapping(uint => Request) public requests;\r\n    uint public numRequests;\r\n\r\n    constructor(uint _target, uint _deadline) {\r\n        target = _target;\r\n        deadline = block.timestamp + _deadline;\r\n        minimumContribution = 100 wei;\r\n        manager = msg.sender;\r\n    }\r\n\r\n    function sendEth() public payable {\r\n        require(block.timestamp < deadline, \"Deadline has passed\");\r\n        require(msg.value >= minimumContribution, \"Minimum Contribution is not met\");\r\n\r\n        if(contributors[msg.sender] == 0) {\r\n            noOfContributors++;\r\n        }\r\n        contributors[msg.sender] += msg.value;\r\n        raisedAmount += msg.value;\r\n    }\r\n\r\n    function getContractbalance() public view returns(uint) {\r\n        return address(this).balance;\r\n    }\r\n\r\n    function refund() public {\r\n        require(block.timestamp > deadline && raisedAmount < target, \"You are not eligible\");\r\n        require(contributors[msg.sender] > 0, \"You have not added a contribution\");\r\n\r\n        address payable user = payable(msg.sender);\r\n        user.transfer(contributors[msg.sender]);\r\n        contributors[msg.sender] = 0;\r\n    }\r\n\r\n    modifier onlyManager() {\r\n        require(msg.sender == manager, \"Only manager can call this function\");\r\n        _;\r\n    }\r\n\r\n    function createRequest(string memory _description, address payable _recipient, uint _value) public onlyManager {\r\n        Request storage newRequest = requests[numRequests];\r\n        numRequests++;\r\n        \r\n        newRequest.description = _description;\r\n        newRequest.recipient = _recipient;\r\n        newRequest.value = _value;\r\n        newRequest.completed = false;\r\n        newRequest.noOfVoters = 0;\r\n    } \r\n\r\n    function voteRequest(uint _requestNo) public {\r\n        require(contributors[msg.sender] > 0, \"You must be a contributor\");\r\n\r\n        Request storage thisRequest = requests[_requestNo];\r\n        \r\n        require(thisRequest.voters[msg.sender] == false, \"You have already voted\");\r\n        thisRequest.voters[msg.sender] = true;\r\n        thisRequest.noOfVoters++;\r\n    }  \r\n\r\n    function makePayment(uint _requestNo) public onlyManager {\r\n        require(raisedAmount >= target, \"Target not met\");\r\n\r\n        Request storage thisRequest = requests[_requestNo];\r\n\r\n        require(thisRequest.completed == false, \"Request already completed\");\r\n        require(thisRequest.noOfVoters > noOfContributors/2, \"Not enough votes\");\r\n\r\n        thisRequest.recipient.transfer(thisRequest.value);\r\n        thisRequest.completed = true;\r\n    }\r\n}",
  "sourcePath": "E:\\CrowdFundin\\contracts\\Crowdfunding.sol",
  "compiler": {
    "name": "solc",
    "version": "0.8.17+commit.8df45f5f.Emscripten.clang"
  },
  "schemaVersion": "3.4.10",
  "updatedAt": "2023-02-04T11:41:30.506Z",
  "networkType": "ethereum",
  "devdoc": {
    "kind": "dev",
    "methods": {},
    "version": 1
  },
  "userdoc": {
    "kind": "user",
    "methods": {},
    "version": 1
  }
}